:10000000020118EE6003020117EF24FE604E147027
:10001000030200961470030200D32403600302015C
:100020001720B119E52F452E701312033B20B1F1B3
:10003000752E00752F01E4F52CF52D80E420B1100C
:10004000E52F452E600A052DE52D70D5052C80D1B4
:1000500030B1CEE52F452E60C802010E20B019E563
:100060002F452E701312033B20B0F1752E00752F13
:1000700001E4F52CF52D80E420B010E52F452E602D
:100080000A052DE52D70D5052C80D130B0CEE52F99
:10009000452E60C8807820B21CE52F452E70167F53
:1000A00014FE12033E20B2EE752E00752F01E4F50A
:1000B0002CF52D80E120B210E52F452E600A052D8C
:1000C000E52D70D2052C80CE30B2CBE52F452E60C9
:1000D000C5803B20B31CE52F452E70167F14FE1201
:1000E000033E20B3EE752E00752F01E4F52CF52D9F
:1000F00080E120B310E52F452E600A052DE52D7017
:10010000D2052C80CE30B3CBE52F452E60C5E4F56B
:100110002EF52FAE2CAF2D22787FE4F6D8FD758119
:100120003302015F020395E493A3F8E493A3400331
:10013000F68001F208DFF48029E493A3F854072441
:100140000CC8C333C4540F4420C8834004F4568001
:100150000146F6DFE4800B01020408102040809085
:10016000029EE47E019360BCA3FF543F30E5095436
:100170001FFEE493A360010ECF54C025E060A840A9
:10018000B8E493A3FAE493A3F8E493A3C8C582C8A0
:10019000CAC583CAF0A3C8C582C8CAC583CADFE975
:1001A000DEE780BEE4FBFA75900FE590640F606EA9
:1001B0007F147E0012033EE590640F606175900F1E
:1001C000AF90EF24F5601024FE6012146015240730
:1001D0007015E4FAFB80107A007B01800A7A007BBC
:1001E0000280047A007B037590F0AF90EF2450609A
:1001F0000C24E0600C24F0600C2470800F740480E8
:100200000674088002740C2BFBE43AFA75900FE533
:1002100090640F60097F0A7E0012033E80F1EB2498
:1002200001FFE43AFE22EF64014E700920A004D2DF
:10023000A08002C2A0EF64024E700920A104D2A1E6
:100240008002C2A1EF64034E700920A204D2A280F2
:1002500002C2A2EF64044E700920A304D2A380025C
:10026000C2A3EF64054E700920A404D2A48002C288
:10027000A4EF64064E700920A504D2A58002C2A591
:10028000EF64074E700920A604D2A68002C2A6EF32
:1002900064084E700820A703D2A722C2A722022C0E
:1002A0000000022E000002300000100800FF00FBDA
:1002B00000F700F300EF00EB00E700E31418003F45
:1002C0000006005B004F0066006D007D0007007FA8
:1002D000006F0232000000E4F530F531C3ED9FEE0F
:1002E0006480F8EC6480985023E4FCFDE4FBFA0B96
:1002F000BB00010AEB647B4A70F50DBD00010CEDFB
:1003000064034C70E70DBD00010C80D022AB05AA40
:1003100004EF25E02408F808E6F5A0900000AF827D
:10032000EF25E02418F808E6F580AF03AE021203CB
:100330003EA3E582640A458370E4227F14FED3EF76
:100340009400EE6480948040147D737C00ED1D70F9
:10035000011CED4C70F7EF1F70E41E80E122E4F504
:1003600030F531E53125E02408F808E6F5A0E4F59C
:10037000800531E531700205306409453070E422B2
:10038000EF25E02408F808E6F5A0ED25E02418F8AC
:0603900008E6F5802222C0
:00000001FF
